{
  "contractName": "RepuChain",
  "abi": [
    {
      "anonymous": false,
      "inputs": [
        {
          "indexed": true,
          "internalType": "bytes32",
          "name": "credentialId",
          "type": "bytes32"
        },
        {
          "indexed": true,
          "internalType": "address",
          "name": "owner",
          "type": "address"
        },
        {
          "indexed": true,
          "internalType": "address",
          "name": "issuer",
          "type": "address"
        },
        {
          "indexed": false,
          "internalType": "string",
          "name": "credentialType",
          "type": "string"
        },
        {
          "indexed": false,
          "internalType": "string",
          "name": "description",
          "type": "string"
        },
        {
          "indexed": false,
          "internalType": "uint256",
          "name": "issueDate",
          "type": "uint256"
        }
      ],
      "name": "CredentialIssued",
      "type": "event"
    },
    {
      "inputs": [],
      "name": "credentialCount",
      "outputs": [
        {
          "internalType": "uint256",
          "name": "",
          "type": "uint256"
        }
      ],
      "stateMutability": "view",
      "type": "function",
      "constant": true
    },
    {
      "inputs": [
        {
          "internalType": "bytes32",
          "name": "",
          "type": "bytes32"
        }
      ],
      "name": "credentials",
      "outputs": [
        {
          "internalType": "address",
          "name": "owner",
          "type": "address"
        },
        {
          "internalType": "address",
          "name": "issuer",
          "type": "address"
        },
        {
          "internalType": "string",
          "name": "credentialType",
          "type": "string"
        },
        {
          "internalType": "string",
          "name": "description",
          "type": "string"
        },
        {
          "internalType": "uint256",
          "name": "issueDate",
          "type": "uint256"
        }
      ],
      "stateMutability": "view",
      "type": "function",
      "constant": true
    },
    {
      "inputs": [
        {
          "internalType": "address",
          "name": "_owner",
          "type": "address"
        },
        {
          "internalType": "string",
          "name": "_credentialType",
          "type": "string"
        },
        {
          "internalType": "string",
          "name": "_description",
          "type": "string"
        }
      ],
      "name": "issueCredential",
      "outputs": [
        {
          "internalType": "bytes32",
          "name": "",
          "type": "bytes32"
        }
      ],
      "stateMutability": "nonpayable",
      "type": "function"
    }
  ],
  "bytecode": "0x608060405234801561001057600080fd5b50610ba4806100206000396000f3fe608060405234801561001057600080fd5b50600436106100415760003560e01c8063299d0348146100465780639f4ed4fb1461007a578063cd0e35b9146100aa575b600080fd5b610060600480360381019061005b919061065b565b6100c8565b6040516100719594939291906107e0565b60405180910390f35b610094600480360381019061008f91906105dc565b61024e565b6040516100a19190610841565b60405180910390f35b6100b26104a1565b6040516100bf91906108c1565b60405180910390f35b60006020528060005260406000206000915090508060000160009054906101000a900473ffffffffffffffffffffffffffffffffffffffff16908060010160009054906101000a900473ffffffffffffffffffffffffffffffffffffffff1690806002018054610137906109ec565b80601f0160208091040260200160405190810160405280929190818152602001828054610163906109ec565b80156101b05780601f10610185576101008083540402835291602001916101b0565b820191906000526020600020905b81548152906001019060200180831161019357829003601f168201915b5050505050908060030180546101c5906109ec565b80601f01602080910402602001604051908101604052809291908181526020018280546101f1906109ec565b801561023e5780601f106102135761010080835404028352916020019161023e565b820191906000526020600020905b81548152906001019060200180831161022157829003601f168201915b5050505050908060040154905085565b600080843385854260405160200161026a959493929190610789565b604051602081830303815290604052805190602001209050600080600083815260200190815260200160002060040154146102da576040517f08c379a00000000000000000000000000000000000000000000000000000000081526004016102d1906108a1565b60405180910390fd5b6040518060a001604052808673ffffffffffffffffffffffffffffffffffffffff1681526020013373ffffffffffffffffffffffffffffffffffffffff1681526020018581526020018481526020014281525060008083815260200190815260200160002060008201518160000160006101000a81548173ffffffffffffffffffffffffffffffffffffffff021916908373ffffffffffffffffffffffffffffffffffffffff16021790555060208201518160010160006101000a81548173ffffffffffffffffffffffffffffffffffffffff021916908373ffffffffffffffffffffffffffffffffffffffff16021790555060408201518160020190805190602001906103e99291906104a7565b5060608201518160030190805190602001906104069291906104a7565b50608082015181600401559050506001600081548092919061042790610a1e565b91905055503373ffffffffffffffffffffffffffffffffffffffff168573ffffffffffffffffffffffffffffffffffffffff16827f941a83385e91f7d08382e34fdf3d40ed3944c88f1129da5c7754f7f118d529b887874260405161048e9392919061085c565b60405180910390a4809150509392505050565b60015481565b8280546104b3906109ec565b90600052602060002090601f0160209004810192826104d5576000855561051c565b82601f106104ee57805160ff191683800117855561051c565b8280016001018555821561051c579182015b8281111561051b578251825591602001919060010190610500565b5b509050610529919061052d565b5090565b5b8082111561054657600081600090555060010161052e565b5090565b600061055d6105588461090d565b6108dc565b90508281526020810184848401111561057557600080fd5b6105808482856109aa565b509392505050565b60008135905061059781610b40565b92915050565b6000813590506105ac81610b57565b92915050565b600082601f8301126105c357600080fd5b81356105d384826020860161054a565b91505092915050565b6000806000606084860312156105f157600080fd5b60006105ff86828701610588565b935050602084013567ffffffffffffffff81111561061c57600080fd5b610628868287016105b2565b925050604084013567ffffffffffffffff81111561064557600080fd5b610651868287016105b2565b9150509250925092565b60006020828403121561066d57600080fd5b600061067b8482850161059d565b91505092915050565b61068d81610964565b82525050565b6106a461069f82610964565b610a67565b82525050565b6106b381610976565b82525050565b60006106c48261093d565b6106ce8185610948565b93506106de8185602086016109b9565b6106e781610b22565b840191505092915050565b60006106fd8261093d565b6107078185610959565b93506107178185602086016109b9565b80840191505092915050565b6000610730601c83610948565b91507f43726564656e7469616c20494420616c726561647920657869737473000000006000830152602082019050919050565b61076c816109a0565b82525050565b61078361077e826109a0565b610a8b565b82525050565b60006107958288610693565b6014820191506107a58287610693565b6014820191506107b582866106f2565b91506107c182856106f2565b91506107cd8284610772565b6020820191508190509695505050505050565b600060a0820190506107f56000830188610684565b6108026020830187610684565b818103604083015261081481866106b9565b9050818103606083015261082881856106b9565b90506108376080830184610763565b9695505050505050565b600060208201905061085660008301846106aa565b92915050565b6000606082019050818103600083015261087681866106b9565b9050818103602083015261088a81856106b9565b90506108996040830184610763565b949350505050565b600060208201905081810360008301526108ba81610723565b9050919050565b60006020820190506108d66000830184610763565b92915050565b6000604051905081810181811067ffffffffffffffff8211171561090357610902610af3565b5b8060405250919050565b600067ffffffffffffffff82111561092857610927610af3565b5b601f19601f8301169050602081019050919050565b600081519050919050565b600082825260208201905092915050565b600081905092915050565b600061096f82610980565b9050919050565b6000819050919050565b600073ffffffffffffffffffffffffffffffffffffffff82169050919050565b6000819050919050565b82818337600083830152505050565b60005b838110156109d75780820151818401526020810190506109bc565b838111156109e6576000848401525b50505050565b60006002820490506001821680610a0457607f821691505b60208210811415610a1857610a17610ac4565b5b50919050565b6000610a29826109a0565b91507fffffffffffffffffffffffffffffffffffffffffffffffffffffffffffffffff821415610a5c57610a5b610a95565b5b600182019050919050565b6000610a7282610a79565b9050919050565b6000610a8482610b33565b9050919050565b6000819050919050565b7f4e487b7100000000000000000000000000000000000000000000000000000000600052601160045260246000fd5b7f4e487b7100000000000000000000000000000000000000000000000000000000600052602260045260246000fd5b7f4e487b7100000000000000000000000000000000000000000000000000000000600052604160045260246000fd5b6000601f19601f8301169050919050565b60008160601b9050919050565b610b4981610964565b8114610b5457600080fd5b50565b610b6081610976565b8114610b6b57600080fd5b5056fea26469706673582212205df00ffd299fb885a4a299a721c94bc714cd75da4263f27c8584b28e865f13a664736f6c63430008000033",
  "immutableReferences": {},
  "source": "// SPDX-License-Identifier: MIT\npragma solidity ^0.8.0;\n\ncontract RepuChain {\n    struct Credential {\n        address owner;\n        address issuer;\n        string credentialType;\n        string description;\n        uint256 issueDate;\n    }\n\n    mapping(bytes32 => Credential) public credentials;\n    uint256 public credentialCount;\n\n    event CredentialIssued(\n        bytes32 indexed credentialId,\n        address indexed owner,\n        address indexed issuer,\n        string credentialType,\n        string description,\n        uint256 issueDate\n    );\n\n    function issueCredential(\n        address _owner,\n        string memory _credentialType,\n        string memory _description\n    ) public returns (bytes32) {\n        bytes32 credentialId = keccak256(abi.encodePacked(_owner, msg.sender, _credentialType, _description, block.timestamp));\n        require(credentials[credentialId].issueDate == 0, \"Credential ID already exists\");\n        credentials[credentialId] = Credential({\n            owner: _owner,\n            issuer: msg.sender,\n            credentialType: _credentialType,\n            description: _description,\n            issueDate: block.timestamp\n        });\n        credentialCount++;\n\n        emit CredentialIssued(\n            credentialId,\n            _owner,\n            msg.sender,\n            _credentialType,\n            _description,\n            block.timestamp\n        );\n\n        return credentialId;\n    }\n}\n",
  "sourcePath": "/Users/duanjianyang/Desktop/Columbia/MSCS/Fall2024/COMS6998_Engineering_Blockchain_and_Web3_Apps/Project/RepuChain/contracts/RepuChain.sol",
  "compiler": {
    "name": "solc",
    "version": "0.8.0+commit.c7dfd78e.Emscripten.clang"
  },
  "schemaVersion": "3.4.16",
  "updatedAt": "2024-11-07T18:08:31.954Z",
  "networkType": "ethereum",
  "devdoc": {
    "kind": "dev",
    "methods": {},
    "version": 1
  },
  "userdoc": {
    "kind": "user",
    "methods": {},
    "version": 1
  }
}