{
  "contractName": "RepuChain",
  "abi": [
    {
      "anonymous": false,
      "inputs": [
        {
          "indexed": true,
          "internalType": "bytes32",
          "name": "credentialId",
          "type": "bytes32"
        },
        {
          "indexed": true,
          "internalType": "address",
          "name": "owner",
          "type": "address"
        },
        {
          "indexed": true,
          "internalType": "address",
          "name": "issuer",
          "type": "address"
        },
        {
          "indexed": false,
          "internalType": "string",
          "name": "credentialType",
          "type": "string"
        },
        {
          "indexed": false,
          "internalType": "string",
          "name": "description",
          "type": "string"
        },
        {
          "indexed": false,
          "internalType": "uint256",
          "name": "issueDate",
          "type": "uint256"
        }
      ],
      "name": "CredentialIssued",
      "type": "event"
    },
    {
      "inputs": [],
      "name": "credentialCount",
      "outputs": [
        {
          "internalType": "uint256",
          "name": "",
          "type": "uint256"
        }
      ],
      "stateMutability": "view",
      "type": "function",
      "constant": true
    },
    {
      "inputs": [
        {
          "internalType": "bytes32",
          "name": "",
          "type": "bytes32"
        }
      ],
      "name": "credentials",
      "outputs": [
        {
          "internalType": "address",
          "name": "owner",
          "type": "address"
        },
        {
          "internalType": "address",
          "name": "issuer",
          "type": "address"
        },
        {
          "internalType": "string",
          "name": "credentialType",
          "type": "string"
        },
        {
          "internalType": "string",
          "name": "description",
          "type": "string"
        },
        {
          "internalType": "uint256",
          "name": "issueDate",
          "type": "uint256"
        }
      ],
      "stateMutability": "view",
      "type": "function",
      "constant": true
    },
    {
      "inputs": [
        {
          "internalType": "address",
          "name": "_owner",
          "type": "address"
        },
        {
          "internalType": "string",
          "name": "_credentialType",
          "type": "string"
        },
        {
          "internalType": "string",
          "name": "_description",
          "type": "string"
        }
      ],
      "name": "issueCredential",
      "outputs": [
        {
          "internalType": "bytes32",
          "name": "",
          "type": "bytes32"
        }
      ],
      "stateMutability": "nonpayable",
      "type": "function"
    },
    {
      "inputs": [
        {
          "internalType": "address",
          "name": "_user",
          "type": "address"
        }
      ],
      "name": "getUserCredentials",
      "outputs": [
        {
          "internalType": "bytes32[]",
          "name": "",
          "type": "bytes32[]"
        }
      ],
      "stateMutability": "view",
      "type": "function",
      "constant": true
    }
  ],
  "bytecode": "0x608060405234801561001057600080fd5b50610de5806100206000396000f3fe608060405234801561001057600080fd5b506004361061004c5760003560e01c8063299d0348146100515780639f4ed4fb14610085578063c76d2919146100b5578063cd0e35b9146100e5575b600080fd5b61006b600480360381019061006691906107bc565b610103565b60405161007c9594939291906109c6565b60405180910390f35b61009f600480360381019061009a919061073d565b610289565b6040516100ac9190610a49565b60405180910390f35b6100cf60048036038101906100ca9190610714565b610542565b6040516100dc9190610a27565b60405180910390f35b6100ed6105d9565b6040516100fa9190610ac9565b60405180910390f35b60006020528060005260406000206000915090508060000160009054906101000a900473ffffffffffffffffffffffffffffffffffffffff16908060010160009054906101000a900473ffffffffffffffffffffffffffffffffffffffff169080600201805461017290610c2d565b80601f016020809104026020016040519081016040528092919081815260200182805461019e90610c2d565b80156101eb5780601f106101c0576101008083540402835291602001916101eb565b820191906000526020600020905b8154815290600101906020018083116101ce57829003601f168201915b50505050509080600301805461020090610c2d565b80601f016020809104026020016040519081016040528092919081815260200182805461022c90610c2d565b80156102795780601f1061024e57610100808354040283529160200191610279565b820191906000526020600020905b81548152906001019060200180831161025c57829003601f168201915b5050505050908060040154905085565b60008084338585426040516020016102a595949392919061096f565b60405160208183030381529060405280519060200120905060008060008381526020019081526020016000206004015414610315576040517f08c379a000000000000000000000000000000000000000000000000000000000815260040161030c90610aa9565b60405180910390fd5b6040518060a001604052808673ffffffffffffffffffffffffffffffffffffffff1681526020013373ffffffffffffffffffffffffffffffffffffffff1681526020018581526020018481526020014281525060008083815260200190815260200160002060008201518160000160006101000a81548173ffffffffffffffffffffffffffffffffffffffff021916908373ffffffffffffffffffffffffffffffffffffffff16021790555060208201518160010160006101000a81548173ffffffffffffffffffffffffffffffffffffffff021916908373ffffffffffffffffffffffffffffffffffffffff16021790555060408201518160020190805190602001906104249291906105df565b5060608201518160030190805190602001906104419291906105df565b5060808201518160040155905050600160008673ffffffffffffffffffffffffffffffffffffffff1673ffffffffffffffffffffffffffffffffffffffff168152602001908152602001600020819080600181540180825580915050600190039060005260206000200160009091909190915055600260008154809291906104c890610c5f565b91905055503373ffffffffffffffffffffffffffffffffffffffff168573ffffffffffffffffffffffffffffffffffffffff16827f941a83385e91f7d08382e34fdf3d40ed3944c88f1129da5c7754f7f118d529b887874260405161052f93929190610a64565b60405180910390a4809150509392505050565b6060600160008373ffffffffffffffffffffffffffffffffffffffff1673ffffffffffffffffffffffffffffffffffffffff1681526020019081526020016000208054806020026020016040519081016040528092919081815260200182805480156105cd57602002820191906000526020600020905b8154815260200190600101908083116105b9575b50505050509050919050565b60025481565b8280546105eb90610c2d565b90600052602060002090601f01602090048101928261060d5760008555610654565b82601f1061062657805160ff1916838001178555610654565b82800160010185558215610654579182015b82811115610653578251825591602001919060010190610638565b5b5090506106619190610665565b5090565b5b8082111561067e576000816000905550600101610666565b5090565b600061069561069084610b15565b610ae4565b9050828152602081018484840111156106ad57600080fd5b6106b8848285610beb565b509392505050565b6000813590506106cf81610d81565b92915050565b6000813590506106e481610d98565b92915050565b600082601f8301126106fb57600080fd5b813561070b848260208601610682565b91505092915050565b60006020828403121561072657600080fd5b6000610734848285016106c0565b91505092915050565b60008060006060848603121561075257600080fd5b6000610760868287016106c0565b935050602084013567ffffffffffffffff81111561077d57600080fd5b610789868287016106ea565b925050604084013567ffffffffffffffff8111156107a657600080fd5b6107b2868287016106ea565b9150509250925092565b6000602082840312156107ce57600080fd5b60006107dc848285016106d5565b91505092915050565b60006107f18383610881565b60208301905092915050565b61080681610ba5565b82525050565b61081d61081882610ba5565b610ca8565b82525050565b600061082e82610b55565b6108388185610b78565b935061084383610b45565b8060005b8381101561087457815161085b88826107e5565b975061086683610b6b565b925050600181019050610847565b5085935050505092915050565b61088a81610bb7565b82525050565b61089981610bb7565b82525050565b60006108aa82610b60565b6108b48185610b89565b93506108c4818560208601610bfa565b6108cd81610d63565b840191505092915050565b60006108e382610b60565b6108ed8185610b9a565b93506108fd818560208601610bfa565b80840191505092915050565b6000610916601c83610b89565b91507f43726564656e7469616c20494420616c726561647920657869737473000000006000830152602082019050919050565b61095281610be1565b82525050565b61096961096482610be1565b610ccc565b82525050565b600061097b828861080c565b60148201915061098b828761080c565b60148201915061099b82866108d8565b91506109a782856108d8565b91506109b38284610958565b6020820191508190509695505050505050565b600060a0820190506109db60008301886107fd565b6109e860208301876107fd565b81810360408301526109fa818661089f565b90508181036060830152610a0e818561089f565b9050610a1d6080830184610949565b9695505050505050565b60006020820190508181036000830152610a418184610823565b905092915050565b6000602082019050610a5e6000830184610890565b92915050565b60006060820190508181036000830152610a7e818661089f565b90508181036020830152610a92818561089f565b9050610aa16040830184610949565b949350505050565b60006020820190508181036000830152610ac281610909565b9050919050565b6000602082019050610ade6000830184610949565b92915050565b6000604051905081810181811067ffffffffffffffff82111715610b0b57610b0a610d34565b5b8060405250919050565b600067ffffffffffffffff821115610b3057610b2f610d34565b5b601f19601f8301169050602081019050919050565b6000819050602082019050919050565b600081519050919050565b600081519050919050565b6000602082019050919050565b600082825260208201905092915050565b600082825260208201905092915050565b600081905092915050565b6000610bb082610bc1565b9050919050565b6000819050919050565b600073ffffffffffffffffffffffffffffffffffffffff82169050919050565b6000819050919050565b82818337600083830152505050565b60005b83811015610c18578082015181840152602081019050610bfd565b83811115610c27576000848401525b50505050565b60006002820490506001821680610c4557607f821691505b60208210811415610c5957610c58610d05565b5b50919050565b6000610c6a82610be1565b91507fffffffffffffffffffffffffffffffffffffffffffffffffffffffffffffffff821415610c9d57610c9c610cd6565b5b600182019050919050565b6000610cb382610cba565b9050919050565b6000610cc582610d74565b9050919050565b6000819050919050565b7f4e487b7100000000000000000000000000000000000000000000000000000000600052601160045260246000fd5b7f4e487b7100000000000000000000000000000000000000000000000000000000600052602260045260246000fd5b7f4e487b7100000000000000000000000000000000000000000000000000000000600052604160045260246000fd5b6000601f19601f8301169050919050565b60008160601b9050919050565b610d8a81610ba5565b8114610d9557600080fd5b50565b610da181610bb7565b8114610dac57600080fd5b5056fea26469706673582212209345fed141f34e9c866e07c812618956a52b68891365cab6d02bc35360a50b8a64736f6c63430008000033",
  "immutableReferences": {},
  "source": "// SPDX-License-Identifier: MIT\r\npragma solidity ^0.8.0;\r\n\r\ncontract RepuChain {\r\n    struct Credential {\r\n        address owner;\r\n        address issuer;\r\n        string credentialType;\r\n        string description;\r\n        uint256 issueDate;\r\n    }\r\n\r\n    mapping(bytes32 => Credential) public credentials;\r\n    mapping(address => bytes32[]) private userCredentials; // Mapping to store list of credentials for each user\r\n    uint256 public credentialCount;\r\n\r\n    event CredentialIssued(\r\n        bytes32 indexed credentialId,\r\n        address indexed owner,\r\n        address indexed issuer,\r\n        string credentialType,\r\n        string description,\r\n        uint256 issueDate\r\n    );\r\n\r\n    function issueCredential(\r\n        address _owner,\r\n        string memory _credentialType,\r\n        string memory _description\r\n    ) public returns (bytes32) {\r\n        bytes32 credentialId = keccak256(abi.encodePacked(_owner, msg.sender, _credentialType, _description, block.timestamp));\r\n        require(credentials[credentialId].issueDate == 0, \"Credential ID already exists\");\r\n\r\n        credentials[credentialId] = Credential({\r\n            owner: _owner,\r\n            issuer: msg.sender,\r\n            credentialType: _credentialType,\r\n            description: _description,\r\n            issueDate: block.timestamp\r\n        });\r\n\r\n        userCredentials[_owner].push(credentialId); // Add credential ID to the user's list\r\n        credentialCount++;\r\n\r\n        emit CredentialIssued(\r\n            credentialId,\r\n            _owner,\r\n            msg.sender,\r\n            _credentialType,\r\n            _description,\r\n            block.timestamp\r\n        );\r\n\r\n        return credentialId;\r\n    }\r\n\r\n    // Function to get all credentials for a user\r\n    function getUserCredentials(address _user) public view returns (bytes32[] memory) {\r\n        return userCredentials[_user];\r\n    }\r\n}\r\n",
  "sourcePath": "D:\\blockchain\\RepuChain\\contracts\\RepuChain.sol",
  "compiler": {
    "name": "solc",
    "version": "0.8.0+commit.c7dfd78e.Emscripten.clang"
  },
  "schemaVersion": "3.4.16",
  "updatedAt": "2024-11-26T05:16:21.271Z",
  "networkType": "ethereum",
  "devdoc": {
    "kind": "dev",
    "methods": {},
    "version": 1
  },
  "userdoc": {
    "kind": "user",
    "methods": {},
    "version": 1
  }
}