{
  "contractName": "RepuChain",
  "abi": [
    {
      "anonymous": false,
      "inputs": [
        {
          "indexed": true,
          "internalType": "bytes32",
          "name": "credentialId",
          "type": "bytes32"
        },
        {
          "indexed": true,
          "internalType": "address",
          "name": "owner",
          "type": "address"
        },
        {
          "indexed": true,
          "internalType": "address",
          "name": "issuer",
          "type": "address"
        },
        {
          "indexed": false,
          "internalType": "string",
          "name": "credentialType",
          "type": "string"
        },
        {
          "indexed": false,
          "internalType": "string",
          "name": "description",
          "type": "string"
        },
        {
          "indexed": false,
          "internalType": "uint256",
          "name": "issueDate",
          "type": "uint256"
        }
      ],
      "name": "CredentialIssued",
      "type": "event"
    },
    {
      "inputs": [],
      "name": "credentialCount",
      "outputs": [
        {
          "internalType": "uint256",
          "name": "",
          "type": "uint256"
        }
      ],
      "stateMutability": "view",
      "type": "function",
      "constant": true
    },
    {
      "inputs": [
        {
          "internalType": "bytes32",
          "name": "",
          "type": "bytes32"
        }
      ],
      "name": "credentials",
      "outputs": [
        {
          "internalType": "address",
          "name": "owner",
          "type": "address"
        },
        {
          "internalType": "address",
          "name": "issuer",
          "type": "address"
        },
        {
          "internalType": "string",
          "name": "credentialType",
          "type": "string"
        },
        {
          "internalType": "string",
          "name": "description",
          "type": "string"
        },
        {
          "internalType": "uint256",
          "name": "issueDate",
          "type": "uint256"
        }
      ],
      "stateMutability": "view",
      "type": "function",
      "constant": true
    },
    {
      "inputs": [
        {
          "internalType": "address",
          "name": "_owner",
          "type": "address"
        },
        {
          "internalType": "string",
          "name": "_credentialType",
          "type": "string"
        },
        {
          "internalType": "string",
          "name": "_description",
          "type": "string"
        }
      ],
      "name": "issueCredential",
      "outputs": [
        {
          "internalType": "bytes32",
          "name": "",
          "type": "bytes32"
        }
      ],
      "stateMutability": "nonpayable",
      "type": "function"
    },
    {
      "inputs": [
        {
          "internalType": "address",
          "name": "_user",
          "type": "address"
        }
      ],
      "name": "getUserReceivedCredentials",
      "outputs": [
        {
          "internalType": "bytes32[]",
          "name": "",
          "type": "bytes32[]"
        }
      ],
      "stateMutability": "view",
      "type": "function",
      "constant": true
    },
    {
      "inputs": [
        {
          "internalType": "address",
          "name": "_user",
          "type": "address"
        }
      ],
      "name": "getUserIssuedCredentials",
      "outputs": [
        {
          "internalType": "bytes32[]",
          "name": "",
          "type": "bytes32[]"
        }
      ],
      "stateMutability": "view",
      "type": "function",
      "constant": true
    }
  ],
  "bytecode": "0x608060405234801561001057600080fd5b50610f1d806100206000396000f3fe608060405234801561001057600080fd5b50600436106100575760003560e01c8063299d03481461005c5780632f765804146100905780639f4ed4fb146100c0578063cd0e35b9146100f0578063d5d0765f1461010e575b600080fd5b610076600480360381019061007191906108f4565b61013e565b604051610087959493929190610afe565b60405180910390f35b6100aa60048036038101906100a5919061084c565b6102c4565b6040516100b79190610b5f565b60405180910390f35b6100da60048036038101906100d59190610875565b61035b565b6040516100e79190610b81565b60405180910390f35b6100f861067a565b6040516101059190610c01565b60405180910390f35b6101286004803603810190610123919061084c565b610680565b6040516101359190610b5f565b60405180910390f35b60006020528060005260406000206000915090508060000160009054906101000a900473ffffffffffffffffffffffffffffffffffffffff16908060010160009054906101000a900473ffffffffffffffffffffffffffffffffffffffff16908060020180546101ad90610d65565b80601f01602080910402602001604051908101604052809291908181526020018280546101d990610d65565b80156102265780601f106101fb57610100808354040283529160200191610226565b820191906000526020600020905b81548152906001019060200180831161020957829003601f168201915b50505050509080600301805461023b90610d65565b80601f016020809104026020016040519081016040528092919081815260200182805461026790610d65565b80156102b45780601f10610289576101008083540402835291602001916102b4565b820191906000526020600020905b81548152906001019060200180831161029757829003601f168201915b5050505050908060040154905085565b6060600260008373ffffffffffffffffffffffffffffffffffffffff1673ffffffffffffffffffffffffffffffffffffffff16815260200190815260200160002080548060200260200160405190810160405280929190818152602001828054801561034f57602002820191906000526020600020905b81548152602001906001019080831161033b575b50505050509050919050565b6000808433858542604051602001610377959493929190610aa7565b604051602081830303815290604052805190602001209050600080600083815260200190815260200160002060040154146103e7576040517f08c379a00000000000000000000000000000000000000000000000000000000081526004016103de90610be1565b60405180910390fd5b6040518060a001604052808673ffffffffffffffffffffffffffffffffffffffff1681526020013373ffffffffffffffffffffffffffffffffffffffff1681526020018581526020018481526020014281525060008083815260200190815260200160002060008201518160000160006101000a81548173ffffffffffffffffffffffffffffffffffffffff021916908373ffffffffffffffffffffffffffffffffffffffff16021790555060208201518160010160006101000a81548173ffffffffffffffffffffffffffffffffffffffff021916908373ffffffffffffffffffffffffffffffffffffffff16021790555060408201518160020190805190602001906104f6929190610717565b506060820151816003019080519060200190610513929190610717565b5060808201518160040155905050600160008673ffffffffffffffffffffffffffffffffffffffff1673ffffffffffffffffffffffffffffffffffffffff168152602001908152602001600020819080600181540180825580915050600190039060005260206000200160009091909190915055600260003373ffffffffffffffffffffffffffffffffffffffff1673ffffffffffffffffffffffffffffffffffffffff1681526020019081526020016000208190806001815401808255809150506001900390600052602060002001600090919091909150556003600081548092919061060090610d97565b91905055503373ffffffffffffffffffffffffffffffffffffffff168573ffffffffffffffffffffffffffffffffffffffff16827f941a83385e91f7d08382e34fdf3d40ed3944c88f1129da5c7754f7f118d529b887874260405161066793929190610b9c565b60405180910390a4809150509392505050565b60035481565b6060600160008373ffffffffffffffffffffffffffffffffffffffff1673ffffffffffffffffffffffffffffffffffffffff16815260200190815260200160002080548060200260200160405190810160405280929190818152602001828054801561070b57602002820191906000526020600020905b8154815260200190600101908083116106f7575b50505050509050919050565b82805461072390610d65565b90600052602060002090601f016020900481019282610745576000855561078c565b82601f1061075e57805160ff191683800117855561078c565b8280016001018555821561078c579182015b8281111561078b578251825591602001919060010190610770565b5b509050610799919061079d565b5090565b5b808211156107b657600081600090555060010161079e565b5090565b60006107cd6107c884610c4d565b610c1c565b9050828152602081018484840111156107e557600080fd5b6107f0848285610d23565b509392505050565b60008135905061080781610eb9565b92915050565b60008135905061081c81610ed0565b92915050565b600082601f83011261083357600080fd5b81356108438482602086016107ba565b91505092915050565b60006020828403121561085e57600080fd5b600061086c848285016107f8565b91505092915050565b60008060006060848603121561088a57600080fd5b6000610898868287016107f8565b935050602084013567ffffffffffffffff8111156108b557600080fd5b6108c186828701610822565b925050604084013567ffffffffffffffff8111156108de57600080fd5b6108ea86828701610822565b9150509250925092565b60006020828403121561090657600080fd5b60006109148482850161080d565b91505092915050565b600061092983836109b9565b60208301905092915050565b61093e81610cdd565b82525050565b61095561095082610cdd565b610de0565b82525050565b600061096682610c8d565b6109708185610cb0565b935061097b83610c7d565b8060005b838110156109ac578151610993888261091d565b975061099e83610ca3565b92505060018101905061097f565b5085935050505092915050565b6109c281610cef565b82525050565b6109d181610cef565b82525050565b60006109e282610c98565b6109ec8185610cc1565b93506109fc818560208601610d32565b610a0581610e9b565b840191505092915050565b6000610a1b82610c98565b610a258185610cd2565b9350610a35818560208601610d32565b80840191505092915050565b6000610a4e601c83610cc1565b91507f43726564656e7469616c20494420616c726561647920657869737473000000006000830152602082019050919050565b610a8a81610d19565b82525050565b610aa1610a9c82610d19565b610e04565b82525050565b6000610ab38288610944565b601482019150610ac38287610944565b601482019150610ad38286610a10565b9150610adf8285610a10565b9150610aeb8284610a90565b6020820191508190509695505050505050565b600060a082019050610b136000830188610935565b610b206020830187610935565b8181036040830152610b3281866109d7565b90508181036060830152610b4681856109d7565b9050610b556080830184610a81565b9695505050505050565b60006020820190508181036000830152610b79818461095b565b905092915050565b6000602082019050610b9660008301846109c8565b92915050565b60006060820190508181036000830152610bb681866109d7565b90508181036020830152610bca81856109d7565b9050610bd96040830184610a81565b949350505050565b60006020820190508181036000830152610bfa81610a41565b9050919050565b6000602082019050610c166000830184610a81565b92915050565b6000604051905081810181811067ffffffffffffffff82111715610c4357610c42610e6c565b5b8060405250919050565b600067ffffffffffffffff821115610c6857610c67610e6c565b5b601f19601f8301169050602081019050919050565b6000819050602082019050919050565b600081519050919050565b600081519050919050565b6000602082019050919050565b600082825260208201905092915050565b600082825260208201905092915050565b600081905092915050565b6000610ce882610cf9565b9050919050565b6000819050919050565b600073ffffffffffffffffffffffffffffffffffffffff82169050919050565b6000819050919050565b82818337600083830152505050565b60005b83811015610d50578082015181840152602081019050610d35565b83811115610d5f576000848401525b50505050565b60006002820490506001821680610d7d57607f821691505b60208210811415610d9157610d90610e3d565b5b50919050565b6000610da282610d19565b91507fffffffffffffffffffffffffffffffffffffffffffffffffffffffffffffffff821415610dd557610dd4610e0e565b5b600182019050919050565b6000610deb82610df2565b9050919050565b6000610dfd82610eac565b9050919050565b6000819050919050565b7f4e487b7100000000000000000000000000000000000000000000000000000000600052601160045260246000fd5b7f4e487b7100000000000000000000000000000000000000000000000000000000600052602260045260246000fd5b7f4e487b7100000000000000000000000000000000000000000000000000000000600052604160045260246000fd5b6000601f19601f8301169050919050565b60008160601b9050919050565b610ec281610cdd565b8114610ecd57600080fd5b50565b610ed981610cef565b8114610ee457600080fd5b5056fea264697066735822122061042465a595104a7a52d7a94056f03819dcd0e413f07d94301bdf9f5758633364736f6c63430008000033",
  "immutableReferences": {},
  "source": "// SPDX-License-Identifier: MIT\npragma solidity ^0.8.0;\n\ncontract RepuChain {\n    struct Credential {\n        address owner;\n        address issuer;\n        string credentialType;\n        string description;\n        uint256 issueDate;\n    }\n\n    mapping(bytes32 => Credential) public credentials;\n    mapping(address => bytes32[]) private userReceivedCredentials;\n    mapping(address => bytes32[]) private userIssuedCredentials;\n\n    uint256 public credentialCount;\n\n    event CredentialIssued(\n        bytes32 indexed credentialId,\n        address indexed owner,\n        address indexed issuer,\n        string credentialType,\n        string description,\n        uint256 issueDate\n    );\n\n    function issueCredential(\n        address _owner,\n        string memory _credentialType,\n        string memory _description\n    ) public returns (bytes32) {\n        bytes32 credentialId = keccak256(\n            abi.encodePacked(_owner, msg.sender, _credentialType, _description, block.timestamp)\n        );\n\n        require(credentials[credentialId].issueDate == 0, \"Credential ID already exists\");\n\n        credentials[credentialId] = Credential({\n            owner: _owner,\n            issuer: msg.sender,\n            credentialType: _credentialType,\n            description: _description,\n            issueDate: block.timestamp\n        });\n\n        userReceivedCredentials[_owner].push(credentialId);\n        userIssuedCredentials[msg.sender].push(credentialId);\n\n        credentialCount++;\n\n        emit CredentialIssued(\n            credentialId,\n            _owner,\n            msg.sender,\n            _credentialType,\n            _description,\n            block.timestamp\n        );\n\n        return credentialId;\n    }\n\n    // Function to get received credentials by a user\n    function getUserReceivedCredentials(address _user) public view returns (bytes32[] memory) {\n        return userReceivedCredentials[_user];\n    }\n\n    // Function to get issued credentials by a user\n    function getUserIssuedCredentials(address _user) public view returns (bytes32[] memory) {\n        return userIssuedCredentials[_user];\n    }\n}\n",
  "sourcePath": "/Users/duanjianyang/Desktop/Columbia/MSCS/Fall2024/COMS6998_Engineering_Blockchain_and_Web3_Apps/Project/RepuChain/contracts/RepuChain.sol",
  "compiler": {
    "name": "solc",
    "version": "0.8.0+commit.c7dfd78e.Emscripten.clang"
  },
  "schemaVersion": "3.4.16",
  "updatedAt": "2024-12-02T22:14:04.135Z",
  "networkType": "ethereum",
  "devdoc": {
    "kind": "dev",
    "methods": {},
    "version": 1
  },
  "userdoc": {
    "kind": "user",
    "methods": {},
    "version": 1
  }
}